:020000040800F2
:10000000005000208D370008753500087B3500084A
:1000100081350008873500088D3500080000000094
:100020000000000000000000000000009335000800
:100030009F35000800000000AB350008B735000808
:10004000D5370008D5370008D5370008D537000860
:10005000D5370008D5370008D5370008D537000850
:10006000D5370008D5370008D5370008D537000840
:10007000D5370008D5370008D5370008D537000830
:10008000D5370008D5370008D5370008D537000820
:10009000D5370008D5370008D5370008D537000810
:1000A000D5370008D5370008D5370008D537000800
:1000B000C5350008D5370008D5370008D935000800
:1000C000ED350008D5370008D5370008D5370008CA
:1000D000D5370008D5370008D5370008D5370008D0
:1000E000D5370008D5370008D537000800000000D4
:1000F0000000000000000000000000000000000000
:0C01000000000000000000005FF808F1A3
:10010C0010B5054C237833B9044B13B10448AFF345
:10011C0000800123237010BDD800002000000000D7
:10012C00487D000808B5034B1BB103490348AFF3E6
:10013C00008008BD00000000DC000020487D0008A5
:10014C004FF0FF0C1CEAD0521EBF1CEAD15392EAAE
:10015C000C0F93EA0C0F6FD01A4480EA010C40028A
:10016C0018BF5FEA41211ED04FF0006343EA5010E4
:10017C0043EA5111A0FB01310CF00040B1F5000F26
:10018C003EBF490041EAD3715B0040EA010062F1D5
:10019C007F02FD2A1DD8B3F1004F40EBC25008BFBF
:1001AC0020F00100704790F0000F0CF0004C08BFDD
:1001BC0049024CEA502040EA51207F3AC2BFD2F1AA
:1001CC00FF0340EAC250704740F400004FF00003B8
:1001DC00013A5DDC12F1190FDCBF00F000407047F2
:1001EC00C2F10002410021FA02F1C2F1200200FA30
:1001FC0002FC5FEA310040F1000053EA4C0308BFF7
:10020C0020EADC70704792F0000F00F0004C02BF47
:10021C00400010F4000F013AF9D040EA0C0093F0C2
:10022C00000F01F0004C02BF490011F4000F013B1C
:10023C00F9D041EA0C018FE70CEAD15392EA0C0F8A
:10024C0018BF93EA0C0F0AD030F0004C18BF31F0F5
:10025C00004CD8D180EA010000F00040704790F0CB
:10026C00000F17BF90F0004F084691F0000F91F06F
:10027C00004F14D092EA0C0F01D142020FD193EA35
:10028C000C0F03D14B0218BF084608D180EA0100BD
:10029C0000F0004040F0FE4040F40000704740F099
:1002AC00FE4040F44000704781F0004102E000BF86
:1002BC0083F0004330B54FEA41044FEA430594EA1A
:1002CC00050F08BF90EA020F1FBF54EA000C55EA55
:1002DC00020C7FEA645C7FEA655C00F0E2804FEA26
:1002EC005454D4EB5555B8BF6D420CDD2C4480EA08
:1002FC00020281EA030382EA000083EA010180EA38
:10030C00020281EA0303362D88BF30BD11F0004F85
:10031C004FEA01314FF4801C4CEA113102D04042BB
:10032C0061EB410113F0004F4FEA03334CEA1333F6
:10033C0002D0524263EB430394EA050F00F0A7800E
:10034C00A4F10104D5F1200E0DDB02FA0EFC22FA09
:10035C0005F2801841F1000103FA0EF2801843FAFD
:10036C0005F359410EE0A5F120050EF1200E012AEE
:10037C0003FA0EFC28BF4CF0020C43FA05F3C0182C
:10038C0051EBE37101F0004507D54FF0000EDCF1A5
:10039C00000C7EEB00006EEB0101B1F5801F1BD34E
:1003AC00B1F5001F0CD349085FEA30004FEA3C0C52
:1003BC0004F101044FEA445212F5800F80F09A8048
:1003CC00BCF1004F08BF5FEA500C50F1000041EB4C
:1003DC00045141EA050130BD5FEA4C0C404141EB50
:1003EC000101013C28BFB1F5801FE9D291F0000F4B
:1003FC0004BF01460020B1FA81F308BF2033A3F1FA
:10040C000B03B3F120020CDA0C3208DD02F1140CF0
:10041C00C2F10C0201FA0CF021FA02F10CE002F12B
:10042C001402D8BFC2F1200C01FA02F120FA0CFC24
:10043C00DCBF41EA0C019040E41AA2BF01EB04516D
:10044C00294330BD6FEA04041F3C1CDA0C340EDC6B
:10045C0004F11404C4F1200220FA04F001FA02F3AE
:10046C0040EA030021FA04F345EA030130BDC4F16C
:10047C000C04C4F1200220FA02F001FA04F340EA61
:10048C000300294630BD21FA04F0294630BD94F012
:10049C00000F83F4801306BF81F480110134013DF9
:1004AC004EE77FEA645C18BF7FEA655C29D094EA6A
:1004BC00050F08BF90EA020F05D054EA000C04BFE8
:1004CC001946104630BD91EA030F1EBF00210020D3
:1004DC0030BD5FEA545C05D14000494128BF41F072
:1004EC00004130BD14F580043CBF01F5801130BDD6
:1004FC0001F0004545F0FE4141F470014FF0000061
:10050C0030BD7FEA645C1ABF194610467FEA655C11
:10051C001CBF0B46024650EA013406BF52EA0335B3
:10052C0091EA030F41F4002130BD00BF90F0000FA1
:10053C0004BF0021704730B54FF4806404F13204DD
:10054C004FF000054FF0000150E700BF90F0000F96
:10055C0004BF0021704730B54FF4806404F13204BD
:10056C0010F0004548BF40424FF000013EE700BF8D
:10057C0042004FEAE2014FEA31014FEA02701FBF1D
:10058C0012F07F4393F07F4F81F06051704732F04F
:10059C007F4208BF704793F07F4F04BF41F40021A6
:1005AC00704730B54FF4607401F0004521F0004104
:1005BC001CE700BF50EA010208BF704730B54FF08E
:1005CC0000050AE050EA010208BF704730B511F08F
:1005DC00004502D5404261EB41014FF4806404F1C7
:1005EC0032045FEA915C3FF4D8AE4FF003025FEA4D
:1005FC00DC0C18BF03325FEADC0C18BF033202EBD1
:10060C00DC02C2F1200300FA03FC20FA02F001FA2A
:10061C0003FE40EA0E0021FA02F11444BDE600BFCD
:10062C0070B54FF0FF0C4CF4E06C1CEA11541DBF7C
:10063C001CEA135594EA0C0F95EA0C0F00F0DEF847
:10064C002C4481EA030621EA4C5123EA4C5350EA2C
:10065C00013518BF52EA033541F4801143F480137D
:10066C0038D0A0FB02CE4FF00005E1FB02E506F00E
:10067C000042E0FB03E54FF00006E1FB03569CF063
:10068C00000F18BF4EF0010EA4F1FF04B6F5007F69
:10069C0064F5407404D25FEA4E0E6D4146EB0606DB
:1006AC0042EAC62141EA55514FEAC52040EA5E5064
:1006BC004FEACE2EB4F1FD0C88BFBCF5E06F1ED80E
:1006CC00BEF1004F08BF5FEA500E50F1000041EB45
:1006DC00045170BD06F0004646EA010140EA0200F2
:1006EC0081EA0301B4EB5C04C2BFD4EB0C0541EA14
:1006FC00045170BD41F480114FF0000E013C00F329
:10070C00AB8014F1360FDEBF002001F0004170BD4C
:10071C00C4F10004203C35DA0C341BDC04F1140465
:10072C00C4F1200500FA05F320FA04F001FA05F2F1
:10073C0040EA020001F0004221F0004110EBD370BE
:10074C0021FA04F642EB06015EEA430E08BF20EAEA
:10075C00D37070BDC4F10C04C4F1200500FA04F38D
:10076C0020FA05F001FA04F240EA020001F000411F
:10077C0010EBD37041F100015EEA430E08BF20EA92
:10078C00D37070BDC4F1200500FA05F24EEA020EDA
:10079C0020FA04F301FA05F243EA020321FA04F009
:1007AC0001F0004121FA04F220EA020000EBD370C0
:1007BC005EEA430E08BF20EAD37070BD94F0000FC0
:1007CC000FD101F00046400041EB010111F4801FF4
:1007DC0008BF013CF7D041EA060195F0000F18BFA5
:1007EC00704703F00046520043EB030313F4801FE1
:1007FC0008BF013DF7D043EA0603704794EA0C0F9B
:10080C000CEA135518BF95EA0C0F0CD050EA4106B0
:10081C0018BF52EA4306D1D181EA030101F000412D
:10082C004FF0000070BD50EA410606BF1046194655
:10083C0052EA430619D094EA0C0F02D150EA013661
:10084C0013D195EA0C0F05D152EA03361CBF1046A2
:10085C0019460AD181EA030101F0004141F0FE4141
:10086C0041F470014FF0000070BD41F0FE4141F4C5
:10087C00780170BD70B54FF0FF0C4CF4E06C1CEAC5
:10088C0011541DBF1CEA135594EA0C0F95EA0C0F7A
:10089C0000F0A7F8A4EB050481EA030E52EA033535
:1008AC004FEA013100F088804FEA03334FF0805556
:1008BC0045EA131343EA12634FEA022245EA111583
:1008CC0045EA10654FEA00260EF000419D4208BF34
:1008DC00964244F1FD0404F5407402D25B084FEAE1
:1008EC003202B61A65EB03055B084FEA32024FF48D
:1008FC0080104FF4002CB6EB020E75EB030E22BFEA
:10090C00B61A754640EA0C005B084FEA3202B6EBA9
:10091C00020E75EB030E22BFB61A754640EA5C0058
:10092C005B084FEA3202B6EB020E75EB030E22BFE8
:10093C00B61A754640EA9C005B084FEA3202B6EBE9
:10094C00020E75EB030E22BFB61A754640EADC00A8
:10095C0055EA060E18D04FEA051545EA16754FEA0A
:10096C0006164FEAC30343EA52734FEAC2025FEA28
:10097C001C1CC0D111F4801F0BD141EA00014FF0B7
:10098C0000004FF0004CB6E711F4801F04BF014388
:10099C000020B4F1FD0C88BFBCF5E06F3FF6AFAEA4
:1009AC00B5EB030C04BFB6EB020C5FEA500C50F134
:1009BC00000041EB045170BD0EF0004E4EEA1131B7
:1009CC0014EB5C04C2BFD4EB0C0541EA045170BDBE
:1009DC0041F480114FF0000E013C90E645EA060E02
:1009EC008DE60CEA135594EA0C0F08BF95EA0C0F30
:1009FC003FF43BAF94EA0C0F0AD150EA01347FF478
:100A0C0034AF95EA0C0F7FF425AF104619462CE74E
:100A1C0095EA0C0F06D152EA03353FF4FDAE1046B1
:100A2C00194622E750EA410618BF52EA43067FF402
:100A3C00C5AE50EA41047FF40DAF52EA43057FF492
:100A4C00EBAE12E74FEA4102B2F1E04324BFB3F53B
:100A5C00001CDCF1FE5C0DD901F0004C4FEAC00229
:100A6C004CEA5070B2F1004F40EB830008BF20F00D
:100A7C000100704711F0804F21D113F13872BCBFC7
:100A8C0001F00040704741F480114FEA5252C2F11C
:100A9C001802C2F1200C10FA0CF320FA02F018BF65
:100AAC0040F001004FEAC1234FEAD32303FA0CFCB8
:100ABC0040EA0C0023FA02F34FEA4303CCE77FEA47
:100ACC00625307D150EA01331EBF4FF0FE4040F491
:100ADC004000704701F0004040F0FE4040F4000040
:100AEC00704700BF80F0004002E000BF81F0004181
:100AFC0042001FBF5FEA410392EA030F7FEA226CB8
:100B0C007FEA236C6AD04FEA1262D2EB1363C1BF47
:100B1C00D218414048404140B8BF5B42192B88BFB6
:100B2C00704710F0004F40F4000020F07F4018BFD9
:100B3C00404211F0004F41F4000121F07F4118BFF9
:100B4C00494292EA030F3FD0A2F1010241FA03FCA1
:100B5C0010EB0C00C3F1200301FA03F100F0004389
:100B6C0002D5494260EB4000B0F5000F13D3B0F151
:100B7C00807F06D340084FEA310102F10102FE2AC0
:100B8C0051D2B1F1004F40EBC25008BF20F0010030
:100B9C0040EA03007047490040EB0000013A28BFCF
:100BAC00B0F5000FEDD2B0FA80FCACF1080CB2EB52
:100BBC000C0200FA0CF0AABF00EBC25052421843D0
:100BCC00BCBFD0401843704792F0000F81F4000175
:100BDC0006BF80F400000132013BB5E74FEA410348
:100BEC007FEA226C18BF7FEA236C21D092EA030FB4
:100BFC0004D092F0000F08BF0846704790EA010F2E
:100C0C001CBF0020704712F07F4F04D1400028BF5A
:100C1C0040F00040704712F100723CBF00F500003C
:100C2C00704700F0004343F0FE4040F40000704772
:100C3C007FEA226216BF08467FEA2363014642021E
:100C4C0006BF5FEA412390EA010F40F48000704731
:100C5C004FF0000304E000BF10F0004348BF4042D7
:100C6C005FEA000C08BF704743F0964301464FF013
:100C7C0000001CE050EA010208BF70474FF000036F
:100C8C000AE000BF50EA010208BF704711F00043B0
:100C9C0002D5404261EB41015FEA010C02BF844680
:100CAC000146002043F0B64308BFA3F18053A3F5DF
:100CBC000003BCFA8CF2083AA3EBC25310DB01FA26
:100CCC0002FC634400FA02FCC2F12002BCF1004FAA
:100CDC0020FA02F243EB020008BF20F0010070473B
:100CEC0002F1200201FA02FCC2F1200250EA4C008F
:100CFC0021FA02F243EB020008BF20EADC707047D5
:100D0C0042000ED2B2F1FE4F0BD34FF09E03B3EB69
:100D1C00126209D44FEA002343F0004323FA02F095
:100D2C0070474FF00000704712F1610F01D1420281
:100D3C0002D14FF0FF3070474FF00000704700BFFA
:100D4C0080B483B000AF0346FB80094B9B681B68E3
:100D5C0000225A6200BF064B9B681B685A6AFB88CC
:100D6C009A42F8D300BF00BF0C37BD4680BC704719
:100D7C00F400002080B584B000AF3B4600221A601E
:100D8C005A609A60DA60094B9B883B6000237B6059
:100D9C000123BB60054B1B683A461146184602F00E
:100DAC002BFF00BF1037BD4680BD00BFF4000020F4
:100DBC0080B584B000AF3B4600221A605A609A603E
:100DCC00DA600A4B9B883B6001237B600123BB608C
:100DDC000223FB60054B1B683A461146184602F08D
:100DEC000BFF00BF1037BD4680BD00BFF4000020D4
:100DFC0080B582B000AF0346FB71064B1B68054AF9
:100E0C009188FA79184603F092F800BF0837BD466E
:100E1C0080BD00BFF400002080B500AF054B1B68FF
:100E2C00044A92881146184603F06AF8034618469D
:100E3C0080BD00BFF400002080B584B000AFF86026
:100E4C000B467A607B810D4AFB6813600B4A7B89E9
:100E5C0093800A4A7B689360084B4FF00002DA607B
:100E6C00064BDB68054A1361FFF7A2FF0120FFF771
:100E7C00BFFF00BF1037BD4680BD00BFF40000208F
:100E8C00B0B584B000AF0023FB81794A3B4692E8B1
:100E9C000300186004331970FFF78AFF0020FFF776
:100EAC00A7FF142002F0F4FCFFF764FF2820FFF7E3
:100EBC0047FFFFF7B1FF0346002B02D15020FFF78D
:100ECC003FFF0023FB8102E0FB890133FB81FB899F
:100EDC00632B04D8FFF7A0FF0346002BF4D10023AB
:100EEC007B735CE000233B7353E00023FB8102E047
:100EFC00FB890133FB81FB89632B04D8FFF78CFF43
:100F0C000346002BF4D02820FFF71AFFFFF784FFCD
:100F1C000346002B17D17B7B10333B4413F8103C5A
:100F2C005AB23B7BC3F10703012101FA03F35BB215
:100F3C00DB435BB213405AB27B7BD2B210333B44DF
:100F4C0003F8102C14E07B7B10333B4413F8103C5B
:100F5C005AB23B7BC3F10703012101FA03F35BB2E5
:100F6C0013435AB27B7BD2B210333B4403F8102CA0
:100F7C000023FB8102E0FB890133FB81FB89632B9E
:100F8C0004D8FFF749FF0346002BF4D13B7B013318
:100F9C003B733B7B072BA8D97B7B01337B737B7B20
:100FAC00042B9FD93B791A463B7819467B780B4426
:100FBC00B9780B44F9780B449A4255D13B781846D2
:100FCC00FFF7C4FA04460D467B781846FFF7BEFAC5
:100FDC004FF00002274BFFF74DFC02460B46204614
:100FEC002946FFF767F902460B4610461946FFF7EC
:100FFC0029FD03461846FFF783FE03467B81BB7829
:10100C001846FFF7A3FA04460D46FB781846FFF77F
:10101C009DFA4FF00002174BFFF72CFC02460B46D3
:10102C0020462946FFF746F902460B46104619465C
:10103C00FFF708FD03461846FFF762FE03463B81A7
:10104C007B891846FFF704FE03460B4A13613B8964
:10105C001846FFF7FDFD0346074AD360FFF7A8FECD
:10106C000120FFF7C5FE00E000BF1037BD46B0BD44
:10107C00607D000800002440F400002080B400AF24
:10108C00024BDB681846BD4680BC7047F40000205C
:10109C0080B400AF024B1B691846BD4680BC70473C
:1010AC00F400002080B485B000AF0346FB71FB79DF
:1010BC0003F00F03FB73FB791B09DBB21A4692009A
:1010CC0013445B00BB73FA7BBB7B1344DBB2184647
:1010DC001437BD4680BC704780B485B000AF034662
:1010EC00FB71FA790D4BA3FB0213D9080B469B003D
:1010FC000B445B00D31AFB73FB79084AA2FB032356
:10110C00DB08DBB21B01BB73FA7BBB7B1344DBB28A
:10111C0018461437BD4680BC704700BFCDCCCCCC34
:10112C0080B483B000AF7860034A7B68136000BF63
:10113C000C37BD4680BC70470801002080B586B0D6
:10114C0002AF03460A46FB711346BB71FB793B7336
:10115C00BB791846FFF7C0FF03467B73074B186833
:10116C0007F10C024FF47A7300930223D02103F0A1
:10117C003BF800BF1037BD4680BD00BF0801002002
:10118C0080B586B002AF0346FB710023FB730F4B97
:10119C001868FA1D4FF47A7300930123D02103F0E1
:1011AC0023F80A4B186807F10F024FF47A73009377
:1011BC000123D02103F016F9FB7B1846FFF772FFD1
:1011CC00034618461037BD4680BD00BF08010020FD
:1011DC0080B500AF2520FFF7D3FF0346012B2CD0A1
:1011EC0001210220FFF7AAFF01210120FFF7A6FF32
:1011FC0001210020FFF7A2FF01210320FFF79EFF32
:10120C0001210420FFF79AFF01210520FFF796FF2B
:10121C0001210620FFF792FF01212620FFF78EFF08
:10122C0001212720FFF78AFF00212820FFF786FFE6
:10123C0001212520FFF782FF00E000BF80BD0000E8
:10124C0080B500AF0220FFF79BFF03461A46214BE7
:10125C001A700120FFF794FF03461A461D4B5A7073
:10126C000020FFF78DFF03461A461A4B9A70032095
:10127C00FFF786FF03461A46164B9A710420FFF7B8
:10128C007FFF03461A46134B5A710520FFF778FF70
:10129C0003461A460F4B1A710620FFF771FF0346DF
:1012AC001A460C4BDA702620FFF76AFF03461A46E3
:1012BC00084BDA712720FFF763FF03461A46054BEC
:1012CC001A722820FFF75CFF03461A46014B5A722C
:1012DC0000BF80BD1001002080B483B000AF034676
:1012EC00FB71FB79013B062B1ED801A252F823F0AF
:1012FC00191300081D1300082113000825130008FA
:10130C00291300082D13000831130008094B0CE0B9
:10131C00094B0AE0094B08E0094B06E0094B04E0D5
:10132C00094B02E0094B00E0094B18460C37BD464F
:10133C0080BC7047687D00086C7D0008707D0008DB
:10134C00747D0008787D00087C7D0008807D000895
:10135C00847D000880B500AF064B00221A70064B46
:10136C0032221A8001224021044802F0E0FD00BF25
:10137C0080BD00BF0C0100202601002000080140A8
:10138C0080B500AF984B1B780D2B01F22B8001A27E
:10139C0052F823F0D9130008431400083D16000836
:1013AC00F1230008D91700081D190008591A000864
:1013BC00C31B0008371D00087D1E0008FF1F000816
:1013CC008F200008C121000815230008874A00213E
:1013DC00002001F067FA864A0021012001F062FA30
:1013EC00FFF7F6FE834B1B88042B00F2E287814B40
:1013FC004FF47A721A80FFF723FF7F49072001F020
:10140C00B3FB01F0D7FB7D4A0021002001F04AFA22
:10141C007A4A0021012001F045FA794B5B7A002BC6
:10142C0004D007220E21002001F000FA6E4B01229D
:10143C001A7000F0BEBF734B1A78734BA3FB0213E8
:10144C0059090B469B000B44DB00D31ADBB2132B60
:10145C000AD82E220621002001F0E8F92E220621BE
:10146C00012001F0E3F909E020220621002001F01F
:10147C00DDF920220621012001F0D8F9614B1A7800
:10148C00614BA3FB0213D9080B469B000B445B007A
:10149C00D31ADBB2002B01D1FFF7D2FE584B1B78CD
:1014AC005BB21946002001F01DFD554B5B785BB219
:1014BC001946072001F016FD514B9B781A460E2158
:1014CC00012001F025FA40F2DC51012001F01AF85C
:1014DC000346002B08D04D4B4FF47A721A80424BC6
:1014EC0004221A7000F067BF40F2DC51022001F0B8
:1014FC0009F80346002B19D040F2DC51002001F012
:10150C0001F80346002B11D0404B4FF47A721A802D
:10151C003F4A0021002001F0C5F93E4A002101207C
:10152C0001F0C0F9304B0A221A705AE0344B5B7A46
:10153C00002B21D0324B1A78314BDB799A421BD1DC
:10154C002F4B5A782E4B1B7A9A4215D12C4B9B78E9
:10155C00002B11D12D4B4FF4FA621A802E4A002128
:10156C00002001F09FF92D4A0021012001F09AF989
:10157C001D4B0D221A7034E01E4B1B88042B06D910
:10158C00012000F0ABFF0346002B00F01487194B31
:10159C004FF4FA721A802249002001F0E5FA214931
:1015AC00012001F0E1FA204A0021002001F07AF933
:1015BC001E4A0021012001F075F9DF2206210120CD
:1015CC0001F034F900220121012001F02FF9012250
:1015DC000921012001F02AF9034B02221A7000F0B4
:1015EC00EABE00F0E8BE00BF0C010020887D0008B8
:1015FC009C7D0008260100204C000020B07D0008D6
:10160C001001002024010020CDCCCCCC2A010020DC
:10161C00C47D0008D87D0008EC7D0008007E000821
:10162C00540000205C000020147E0008287E000876
:10163C00AA4B9B791846FFF74FFE03461A46012129
:10164C00002001F02FF9A54B5B791A4605210020EB
:10165C0001F05EF9A14B1B791A460821002001F01C
:10166C0057F99E4BDB7803F5FA631A460B210020E1
:10167C0001F04EF9994BDB681A460221012001F06A
:10168C00B3F9964B1B691A460A21012001F0ACF9FB
:10169C00934B1B88042B0FD8914B4FF47A721A8002
:1016AC00FFF7EEFBFFF7EAFC03468C4AD360FFF72B
:1016BC00EFFC0346894A136140F2DC51012000F033
:1016CC0021FF0346002B08D0864B4FF47A721A8008
:1016DC00854B06221A7000F070BE40F2DC510220DD
:1016EC0000F010FF0346002B19D040F2DC51002013
:1016FC0000F008FF0346002B11D07A4B4FF47A729E
:10170C001A807A4A0021002001F0CCF8784A002196
:10171C00012001F0C7F8744B0A221A7054E06F4B89
:10172C005B7A002B21D06D4B1A786C4BDB799A428B
:10173C001BD16A4B5A78694B1B7A9A4215D1674B6D
:10174C009B78002B11D1674B4FF4FA621A80694ACF
:10175C000021002001F0A6F8674A0021012001F0C9
:10176C00A1F8614B0D221A702EE0644B1B88042BE0
:10177C0006D9012000F0B2FE0346002B00F01D86B6
:10178C005E4B4FF47A721A80FFF75AFD5C490720C2
:10179C0001F0EAF901F00EFA5A4A0021002001F09A
:1017AC0081F8584A0021012001F07CF84B4B5B7A00
:1017BC00002B04D007220E21002001F037F84A4BF1
:1017CC0001221A7000F0F9BD00F0F7BD4E4B1A78EB
:1017DC004E4BA3FB021319090B469B000B449B00B9
:1017EC00D31ADBB2092B07D83C4B1B785BB21946DA
:1017FC00002001F077FB03E06421002001F072FB74
:10180C00002000F05BFE034603F007039BB2012BA4
:10181C0017D1344B4FF47A721A80304B1B78162B3D
:10182C0004D82E4B1B780133DBB200E000232B4A8B
:10183C0013702A4B1B785BB21946002001F052FB47
:10184C0018E0022000F03AFE034603F007039BB2B7
:10185C00012B0FD1234B4FF47A721A801F4B1B783C
:10186C00002B04D01D4B1B78013BDBB200E017238F
:10187C001A4A1370012000F031FE0346002B15D0DC
:10188C00184B4FF47A721A80144B1B7819460220AD
:10189C00FFF754FC114B1B785BB21946002001F08A
:1018AC0021FB114B05221A7000F089BD0D4B1B88D2
:1018BC00042B00F28485114B4FF47A721A80114A72
:1018CC000021002000F0EEFF0E4A0021012000F064
:1018DC00E9FF054B01221A7000F071BD10010020C8
:1018EC00280100202A0100200C010020C47D0008E2
:1018FC00D87D0008EC7D0008007E00082601002041
:10190C004C000020B07D000824010020CDCCCCCCB4
:10191C00B44B1A78B44BA3FB021319090B469B006A
:10192C000B449B00D31ADBB2092B07D8AF4B5B7867
:10193C005BB21946072001F0D5FA03E064210720B9
:10194C0001F0D0FA002000F0B9FD03461A46A64B70
:10195C00A3FB0213D9080B469B000B445B00D31A64
:10196C009BB2012B17D1A24B4FF47A721A809F4B6A
:10197C005B783A2B04D89D4B5B780133DBB200E0EB
:10198C0000239A4A5370994B5B785BB21946072037
:10199C0001F0A8FA27E0022000F090FD03461A4659
:1019AC00914BA3FB0213D9080B469B000B445B0025
:1019BC00D31A9BB2012B16D18D4B4FF47A721A802D
:1019CC008A4B5B78002B04D0884B5B78013BDBB2F5
:1019DC0000E03B23854A5370844B5B785BB219461D
:1019EC00072001F07FFA824B1B88042B06D90120BB
:1019FC0000F074FD0346002B00F0E3847D4B4FF4A4
:101A0C007A721A80794B5B7819460120FFF796FBA6
:101A1C007949072001F0A8F801F0CCF8774A0021A9
:101A2C00002000F03FFF754A0021012000F03AFF32
:101A3C006E4B5B7A002B04D007220E21002000F0A5
:101A4C00F5FE6F4B01221A7000F0BBBC654B1A7887
:101A5C00654BA3FB021319090B469B000B449B001F
:101A6C00D31ADBB2092B0BD8604B9B791846FFF7C6
:101A7C0033FC03461A460121002000F013FF04E05A
:101A8C00604A0121002000F00DFF002000F016FD3F
:101A9C0003461A46544BA3FB0213D9080B469B0072
:101AAC000B445B00D31A9BB2012B1BD1504B4FF450
:101ABC007A721A804D4B9B79062B04D84B4B9B7931
:101ACC000133DBB200E00123484A9371474B9B7909
:101ADC001846FFF701FC03461A460121002000F0CE
:101AEC00E1FE2BE0022000F0E9FC03461A463E4BD7
:101AFC00A3FB0213D9080B469B000B445B00D31AC3
:101B0C009BB2012B1AD13A4B4FF47A721A80374B95
:101B1C009B79012B04D9354B9B79013BDBB200E05F
:101B2C000723324A9371314B9B791846FFF7D4FB4C
:101B3C0003461A460121002000F0B4FE012000F0FB
:101B4C00CDFC0346002B19D0294B4FF47A721A8026
:101B5C00264B9B7919460320FFF7F0FA234B9B7910
:101B6C001846FFF7B9FB03461A460121002000F086
:101B7C0099FE234B07221A7000F025BC1C4B1B88C6
:101B8C00042B00F220841B4B4FF4FA721A801E4A6D
:101B9C000021002000F086FE1C4A0021012000F0EC
:101BAC0081FEDF220621012000F040FE144B0222B0
:101BBC001A7000F008BC0B4B1A780B4BA3FB0213EA
:101BCC0019090B469B000B449B00D31ADBB2092B63
:101BDC001ED8064B5B791A460521002000F098FEB2
:101BEC001BE000BF24010020CDCCCCCC1001002088
:101BFC002A010020260100204C000020B07D0008A6
:101C0C000C0100203C7E0008147E0008287E000891
:101C1C00B54A0521002000F045FE002000F04EFCE6
:101C2C0003461A46B14BA3FB0213D9080B469B0083
:101C3C000B445B00D31A9BB2012B17D1AC4B4FF466
:101C4C007A721A80AB4B5B791E2B04D8A94B5B794B
:101C5C000133DBB200E00123A64A5371A54B5B793B
:101C6C001A460521002000F053FE27E0022000F068
:101C7C0025FC03461A469D4BA3FB0213D9080B46C1
:101C8C009B000B445B00D31A9BB2012B16D1984BD3
:101C9C004FF47A721A80974B5B79012B04D9954BD0
:101CAC005B79013BDBB200E01F23924A5371914BED
:101CBC005B791A460521002000F02AFE012000F075
:101CCC000DFC0346002B14D0894B4FF47A721A800A
:101CDC00884B5B7919460420FFF730FA854B5B790A
:101CEC001A460521002000F013FE834B08221A70BF
:101CFC006BE37F4B1B88042B00F267837F4B4FF405
:101D0C00FA721A807E4A0021002000F0CBFD7D4A39
:101D1C000021012000F0C6FDDF220621012000F089
:101D2C0085FD754B02221A704FE3774B1A786F4B77
:101D3C00A3FB021319090B469B000B449B00D31AFF
:101D4C00DBB2092B07D86B4B1B791A4608210020F4
:101D5C0000F0DEFD04E0644A0821002000F0A2FD42
:101D6C00002000F0ABFB03461A46604BA3FB0213AA
:101D7C00D9080B469B000B445B00D31A9BB2012B7A
:101D8C0017D15B4B4FF47A721A805A4B1B790B2B81
:101D9C0004D8584B1B790133DBB200E00123554AC0
:101DAC001371544B1B791A460821002000F0B0FD2A
:101DBC0027E0022000F082FB03461A464B4BA3FBA4
:101DCC000213D9080B469B000B445B00D31A9BB241
:101DDC00012B16D1464B4FF47A721A80454B1B7966
:101DEC00012B04D9434B1B79013BDBB200E00C23E4
:101DFC00404A13713F4B1B791A460821002000F012
:101E0C0087FD012000F06AFB0346002B14D0384BF1
:101E1C004FF47A721A80374B1B7919460520FFF75D
:101E2C008DF9344B1B791A460821002000F070FD07
:101E3C00314B09221A70CAE22D4B1B88042B00F27D
:101E4C00C6822E4B4FF4FA721A802D4A00210020C4
:101E5C0000F028FD2B4A0021012000F023FDDF2299
:101E6C000621012000F0E2FC234B02221A70AEE2A4
:101E7C00254B1A781D4BA3FB021319090B469B002B
:101E8C000B449B00D31ADBB2092B09D8194BDB7816
:101E9C0003F5FA631A460B21002000F039FD04E02B
:101EAC001A4A0B21002000F0FDFC002000F006FB7C
:101EBC0003461A460D4BA3FB0213D9080B469B0095
:101ECC000B445B00D31A9BB2012B2ED1084B4FF461
:101EDC007A721A80074BDB78622B19D8054BDB78AA
:101EEC000133DBB215E000BF407E0008CDCCCCCC7A
:101EFC002A010020100100200C01002026010020E6
:101F0C00147E0008287E000824010020447E00086E
:101F1C000023B34AD370B24BDB7803F5FA631A464D
:101F2C000B21002000F0F4FC29E0022000F0C6FA9E
:101F3C0003461A46AB4BA3FB0213D9080B469B0076
:101F4C000B445B00D31A9BB2012B18D1A64B4FF458
:101F5C007A721A80A24BDB78002B04D0A04BDB7872
:101F6C00013BDBB200E063239D4AD3709C4BDB78D2
:101F7C0003F5FA631A460B21002000F0C9FC01207E
:101F8C0000F0ACFA0346002B04D1974B1B88042BB2
:101F9C0000F21F82954B4FF4FA721A80904BDB784B
:101FAC0019460620FFF7CAF89149002000F0DCFD25
:101FBC009049012000F0D8FD8F4A0021002000F04C
:101FCC0071FC8E4A0021012000F06CFCDF220621FE
:101FDC00012000F02BFC00220121012000F026FC46
:101FEC0001220921012000F021FC854B02221A70EC
:101FFC00EFE1012000F072FA0346002B22D0784B5F
:10200C0001225A7201212820FFF798F87D4A0021FD
:10201C00002000F047FC7C4A0021012000F042FC2B
:10202C006F4BDB791A460321012000F071FC6C4BDD
:10203C001B7A1A460B21012000F06AFC704B0B2214
:10204C001A70C8E1022000F049FA0346002B0AD1AD
:10205C00002000F043FA0346002B04D1624B1B888E
:10206C00042B00F2B881614B32221A805C4B0022A7
:10207C005A7200212820FFF761F8614B00221A7078
:10208C00A9E1624B1A78574BA3FB021319090B46B3
:10209C009B000B449B00D31ADBB2092B07D8504B87
:1020AC00DB791A460321012000F032FC04E0584A87
:1020BC000321012000F0F6FB002000F0FFF903469D
:1020CC001A46484BA3FB0213D9080B469B000B4442
:1020DC005B00D31A9BB2012B17D1434B4FF47A728E
:1020EC001A803F4BDB79162B04D83D4BDB7901333F
:1020FC00DBB200E000233A4AD371394BDB791A4644
:10210C000321012000F004FC27E0022000F0D6F9A6
:10211C0003461A46334BA3FB0213D9080B469B000C
:10212C000B445B00D31A9BB2012B16D12E4B4FF4F0
:10213C007A721A802A4BDB79002B04D0284BDB797E
:10214C00013BDBB200E01723254AD371244BDB792A
:10215C001A460321012000F0DBFB012000F0BEF940
:10216C000346002B14D0204B4FF47A721A801C4B70
:10217C00DB7919462620FEF7E1FF194BDB791A466D
:10218C000321012000F0C4FB1D4B0C221A7024E12A
:10219C00154B1B88042B00F22081144B32221A8021
:1021AC000F4BDB7919462620FEF7C8FF144B002293
:1021BC001A7012E1154B1A780A4BA3FB021319097A
:1021CC000B469B000B449B00D31ADBB2092B21D886
:1021DC00034B1B7A1A460B21012000F099FB1EE0E1
:1021EC0010010020CDCCCCCC2A01002026010020EF
:1021FC00540000205C000020147E0008287E00089B
:10220C000C0100204C7E0008607E00082401002098
:10221C00407E0008744A0B21012000F043FB002093
:10222C0000F04CF903461A46704BA3FB0213D90875
:10223C000B469B000B445B00D31A9BB2012B17D1AE
:10224C006B4B4FF47A721A806A4B1B7A3A2B04D878
:10225C00684B1B7A0133DBB200E00023654A137232
:10226C00644B1B7A1A460B21012000F051FB27E02E
:10227C00022000F023F903461A465C4BA3FB021321
:10228C00D9080B469B000B445B00D31A9BB2012B65
:10229C0016D1574B4FF47A721A80564B1B7A002B7F
:1022AC0004D0544B1B7A013BDBB200E03B23514A78
:1022BC001372504B1B7A1A460B21012000F028FB9D
:1022CC00012000F00BF90346002B0CD04A4B3222B4
:1022DC001A80484B1B7A19462720FEF72FFF474BD5
:1022EC0000221A707BE0424B1B88042B77D8424BA0
:1022FC0032221A803F4B1B7A19462720FEF71EFF0D
:10230C003E4B00221A706AE03D4B1A78374BA3FB08
:10231C00021319090B469B000B449B00D31ADBB22A
:10232C00092B0AD8374A0021002000F0BBFA364AA4
:10233C000021012000F0B6FA09E0344A0021002007
:10234C0000F0B0FA314A0021012000F0ABFA2C4B1E
:10235C001A78264BA3FB021319090B469B000B445E
:10236C009B00D31ADBB2092B03D8002001F010F824
:10237C0002E0012001F00CF81D4B1B88042B11D935
:10238C00012000F0ABF80346002B0BD1022000F02B
:10239C00A5F80346002B05D1002000F09FF803465A
:1023AC00002B1ED0144B32221A80144B00221A70B0
:1023BC0017E000BF16E000BF14E000BF12E000BF42
:1023CC0010E000BF0EE000BF0CE000BF0AE000BF51
:1023DC0008E000BF06E000BF04E000BF02E000BF61
:1023EC0000E000BF00BF80BD407E0008CDCCCCCC4F
:1023FC002A01002010010020260100200C010020E1
:10240C0024010020EC7D0008007E00089C7D000863
:10241C0080B400AF00BFBD4680BC704780B582B0B1
:10242C0000AF0023FB7139E0FB79204A52F82320DE
:10243C00FB791F4931F813301946104601F060FD45
:10244C000346002B0FD1FB791A4A32F81330C72BF5
:10245C0021D8FB79174A32F81320013291B2154A70
:10246C0022F8131017E0FB79124A32F81330002BC4
:10247C0007D0FB790F4A32F81330092B01D801220F
:10248C0000E00022FB79D1B20B4AD154FB79094A06
:10249C00002122F81310FB790133FB71FB79022B1D
:1024AC00C2D900BF00BF0837BD4680BD0000002068
:1024BC000C000020300100202C01002080B483B0DF
:1024CC0000AF0346FB71FB79034A32F81330184610
:1024DC000C37BD4680BC70473001002080B483B0FF
:1024EC0000AF0346FB71FB79022B01D9002302E0FC
:1024FC00FB79034AD35C18460C37BD4680BC704749
:10250C002C01002080B483B000AF03460A46FB7157
:10251C001346BB80FB79022B01D900230EE0FB791B
:10252C00094A32F81320BB880849A1FB03131B0985
:10253C009BB29A422CBF01230023DBB218460C3706
:10254C00BD4680BC704700BF300100201F85EB5199
:10255C0080B582B000AF0346FB80FB88184601F0C3
:10256C0097F900BF0837BD4680BD000080B586B026
:10257C0002AF03460A46FB711346BB71FB7923F08D
:10258C000F03FB73FB791B01BB731C4BDB7A002B1A
:10259C0007D0FB7B43F00803FB73BB7B43F00803C2
:1025AC00BB73BB79012B07D1FB7B43F00103FB739E
:1025BC00BB7B43F00103BB73FB7B43F00403DBB237
:1025CC003B72FB7B7B72BB7B43F00403DBB2BB72C5
:1025DC00BB7BFB72094B1868084B1B799BB25B00E9
:1025EC0099B207F108024FF47A730093042301F0B7
:1025FC00FBFD00BF1037BD4680BD00BF3C01002075
:10260C0080B584B000AF7860084611461A46034680
:10261C00FB700B46BB7013467B704A4A7B68136099
:10262C00484AFB781371474A7B785371454ABB780B
:10263C009371444B28221A72424B0622DA71414B99
:10264C000C225A723F4B14229A723E4B0822DA72B9
:10265C003220FFF77DFF3C4B1B68002B04D03A4B1C
:10266C001B68184605F060FABB787A7802FB03F316
:10267C00DB00184605F050FA03461A46324B1A6036
:10268C000023FB7308E0304B1A68FB7B13442022B9
:10269C001A70FB7B0133FB73FA7B2A4B9B7919462F
:1026AC00284B5B7901FB03F39A42ECDB00213320CE
:1026BC00FFF75CFF00213320FFF758FF0520FFF7E1
:1026CC0047FF00213220FFF751FF0520FFF740FFA5
:1026DC0000212020FFF74AFF0520FFF739FF194B97
:1026EC00DB7900211846FFF741FF0120FFF730FF8F
:1026FC00144B5B7A00211846FFF738FF0120FFF7D7
:10270C0027FF104B9B7A00211846FFF72FFF012063
:10271C00FFF71EFF0B4B1B7A00211846FFF726FF15
:10272C000120FFF715FF00210120FFF71FFF0120FB
:10273C00FFF70EFF00210220FFF718FF00BF103734
:10274C00BD4680BD3C0100203801002080B584B01E
:10275C0000AF03460A46FB711346BB710023FB73A3
:10276C001D4B9A79FB79B3FBF2F101FB02F29B1A38
:10277C00FB71194B5A79BB79B3FBF2F101FB02F2F5
:10278C009B1ABB71FB79032B19D801A252F823F0C9
:10279C00AD270008B3270008BB270008C327000893
:1027AC00BB79FB730BE0BB794033FB7307E0BB7960
:1027BC001433FB7303E0BB795433FB7300BFFB7B17
:1027CC0063F07F03DBB200211846FFF7CFFE00BF9A
:1027DC001037BD4680BD00BF3C01002080B483B0E3
:1027EC0000AF0346FB710D4B1B680D4A1278114666
:1027FC000C4A527901FB02F20B4909780A44134442
:10280C00FA791A70084B1B780133DAB2064B1A703E
:10281C0000BF0C37BD4680BC704700BF380100209C
:10282C00490100203C0100204801002080B483B005
:10283C0000AF0346FB710B46BB7113467B71154B06
:10284C009A79FB79B3FBF2F101FB02F29B1ADAB233
:10285C00114B1A700F4B5A79BB79B3FBF2F101FB98
:10286C0002F29B1ADAB20D4B1A700D4B1B680A4A16
:10287C0012781146074A527901FB02F2074909788E
:10288C000A4413447A791A7000BF0C37BD4680BCD9
:10289C00704700BF3C010020490100204801002086
:1028AC003801002080B582B000AF03463A60FB715E
:1028BC000B46BB71134B9A79FB79B3FBF2F101FB1D
:1028CC0002F29B1ADAB2104B1A700E4B5A79BB7982
:1028DC00B3FBF2F101FB02F29B1ADAB20B4B1A704A
:1028EC0006E03B685A1C3A601B781846FFF776FFE7
:1028FC003B681B78002BF4D100BF00BF0837BD46E6
:10290C0080BD00BF3C01002049010020480100208F
:10291C0080B584B000AF03463A60FB710B46BB71C7
:10292C000023FB732C4BBB60FB7903F00103DAB281
:10293C002A4B1A70BB7903F00F03DAB2284B1A70CA
:10294C003B68002B06DA3B685B423B602D20FFF7AF
:10295C0045FF0FE03B68002B06D13020FFF73EFF10
:10296C003020FFF73BFF34E03B68092B02DC3020C2
:10297C00FFF734FF0A23BB7328E03B68BA689A421E
:10298C000CD80123FB733A68BB68B2FBF3F3DBB2E0
:10299C003033DBB21846FFF721FF05E0FB7B002B41
:1029AC0002D03020FFF71AFF3B68BA68B3FBF2F293
:1029BC00B96801FB02F29B1A3B60BB68094AA2FB97
:1029CC000323DB08BB60BB7B013BBB73BB7B002BD6
:1029DC00D3D11037BD4680BD00CA9A3B49010020B7
:1029EC0048010020CDCCCCCC80B584B000AF0346E0
:1029FC003A60FB710B46BB71FB7903F00103DAB251
:102A0C00394B1A70BB7903F00F03DAB2374B1A70DB
:102A1C003868FEF775F90346FB73FB7B1846FEF727
:102A2C001BF9034619463868FEF760F8034630492F
:102A3C001846FDF785FB03461846FEF761F9034679
:102A4C00BB73FB7B632B0AD9FB7B2A4AA2FB0323B8
:102A5C005B09DBB23033DBB21846FFF7BFFEFB7B02
:102A6C00244AA2FB03125209642101FB02F29B1AB5
:102A7C00DBB2214AA2FB0323DB08DBB23033DBB22F
:102A8C001846FFF7ABFEFB7B1A4AA2FB0312520956
:102A9C00642101FB02F29B1ADAB2174BA3FB02135F
:102AAC00D9080B469B000B445B00D31ADBB23033C6
:102ABC00DBB21846FFF792FE2E20FFF78FFEBA7B93
:102ACC000D4BA3FB0213D9080B469B000B445B0078
:102ADC00D31ADBB23033DBB21846FFF77FFE00BFF0
:102AEC001037BD4680BD00BF4901002048010020C1
:102AFC00000020411F85EB51CDCCCCCC80B582B0F1
:102B0C0000AF0023FB7121E0FB7900211846FFF791
:102B1C001DFE0023BB7111E0114B1B68FA791149A2
:102B2C00497902FB01F1BA790A4413441B7801215B
:102B3C001846FFF71BFDBB790133BB71094B5B7961
:102B4C00BA799A42E8D3FB790133FB71054B9B7937
:102B5C00FA799A42D8D300BF00BF0837BD4680BD72
:102B6C00380100203C01002080B584B000AF034642
:102B7C003960FB71FB790833DBB2DB00DBB200217F
:102B8C001846FFF7F3FC0023FB730AE0FB7B3A6863
:102B9C0013441B7801211846FFF7E8FCFB7B01333B
:102BAC00FB73FB7B072BF1D900BF00BF1037BD4671
:102BBC0080BD000080B500AF0E490020FFF7D4FFA8
:102BCC000D490120FFF7D0FF0C490220FFF7CCFF85
:102BDC000B490320FFF7C8FF0A490420FFF7C4FF85
:102BEC0009490520FFF7C0FF08490620FFF7BCFF85
:102BFC0000BF80BD140000201C0000202400002019
:102C0C002C000020340000203C0000204400002058
:102C1C0080B582B000AF03460A46FB711346BB7108
:102C2C00AE4B00221A70FB7903F00F03DAB2AC4BF7
:102C3C001A7097F90630092B00F2308101A252F874
:102C4C0023F000BF792C0008B12C0008E92C0008F7
:102C5C00212D0008592D0008912D0008C92D0008C0
:102C6C00012E0008392E0008712E00080020FFF7F5
:102C7C00B5FD0120FFF7B2FD0220FFF7AFFD974B2A
:102C8C0001221A70FB7903F00F03DAB2944B1A701D
:102C9C000320FFF7A3FD0420FFF7A0FD0520FFF79D
:102CAC009DFD17E10120FFF799FD0220FFF796FD2E
:102CBC002020FFF793FD894B01221A70FB7903F05A
:102CCC000F03DAB2864B1A700420FFF787FDFF2042
:102CDC00FFF784FD0420FFF781FDFBE00620FFF7E2
:102CEC007DFD0620FFF77AFD0220FFF777FD7B4B79
:102CFC0001221A70FB7903F00F03DAB2784B1A70C9
:102D0C000320FFF76BFD0420FFF768FD0420FFF79D
:102D1C0065FDDFE00620FFF761FD0620FFF75EFD95
:102D2C000220FFF75BFD6D4B01221A70FB7903F05B
:102D3C000F03DAB26A4B1A700420FFF74FFD042020
:102D4C00FFF74CFD0520FFF749FDC3E00320FFF71B
:102D5C0045FD0420FFF742FD0220FFF73FFD5F4BCE
:102D6C0001221A70FB7903F00F03DAB25C4B1A7074
:102D7C002020FFF733FD2020FFF730FDFF20FFF769
:102D8C002DFDA7E00320FFF729FD0620FFF726FD08
:102D9C000620FFF723FD514B01221A70FB7903F03B
:102DAC000F03DAB24E4B1A700420FFF717FD042004
:102DBC00FFF714FD0520FFF711FD8BE00020FFF756
:102DCC000DFD0620FFF70AFD0620FFF707FD434B1C
:102DDC0001221A70FB7903F00F03DAB2404B1A7020
:102DEC000320FFF7FBFC0420FFF7F8FC0520FFF79E
:102DFC00F5FC6FE00120FFF7F1FC0120FFF7EEFC82
:102E0C000220FFF7EBFC354B01221A70FB7903F023
:102E1C000F03DAB2324B1A702020FFF7DFFC2020B0
:102E2C00FFF7DCFC0520FFF7D9FC53E00020FFF78F
:102E3C00D5FC0620FFF7D2FC0220FFF7CFFC274B76
:102E4C0001221A70FB7903F00F03DAB2244B1A70CB
:102E5C000320FFF7C3FC0420FFF7C0FC0520FFF79D
:102E6C00BDFC37E00020FFF7B9FC0620FFF7B6FCED
:102E7C000220FFF7B3FC194B01221A70FB7903F007
:102E8C000F03DAB2164B1A700420FFF7A7FC0420CC
:102E9C00FFF7A4FC0520FFF7A1FC1BE02020FFF7A7
:102EAC009DFC2020FFF79AFC2020FFF797FC0B4B92
:102EBC0001221A70FB7903F00F03DAB2084B1A7077
:102ECC002020FFF78BFC2020FFF788FC2020FFF749
:102EDC0085FC00BF00BF0837BD4680BD49010020FE
:102EEC004801002080B582B000AF03460A46FB7152
:102EFC001346BB7197F90630622B22DC97F906302A
:102F0C00184A82FB03129210DB17D31A5AB2FB79C0
:102F1C0011461846FFF77CFEFB790333D8B297F9BC
:102F2C000620104B83FB02139910D317C91A0B46BA
:102F3C009B000B445B00D31A5BB21946FFF768FE8B
:102F4C000BE0FB7920211846FFF762FEFB79033377
:102F5C00DBB220211846FFF75BFE00BF0837BD46E9
:102F6C0080BD00BF6766666680B500AF00F02EFCC2
:102F7C0000F072F800F07EF900F0B4F800F02CF9D3
:102F8C0000F0DEF82B4804F02DF92B4804F0E0F8A3
:102F9C000021294804F078F9264800F09DFB3220E6
:102FAC0000F0BAFBFFF734FAFEF7D4F9224A2021DD
:102FBC002248FDF741FF4021214800F0CDF91023B4
:102FCC0002223F211F48FFF71BFBFFF7F3FD1D48B3
:102FDC00FEF7A6F800F0C2FB0346002BFAD01A4B02
:102FEC001B780133194A82FB03129111DA178A1AE2
:102FFC00C82101FB02F29A1AD2B2134B1A70144B6D
:10300C001B88042B05D9124B1B88053B9AB2104B1D
:10301C001A80104B1B88042B05D90E4B1B88053BC3
:10302C009AB20C4B1A80FFF7F9F9FEF7A9F9FFF7E2
:10303C0065FDCFE7A0010020E8010020000C014055
:10304C00000801404C010020240100201F85EB5199
:10305C00260100202A01002080B590B000AF07F1B6
:10306C00180328220021184604F066FD3B1D00229F
:10307C001A605A609A60DA601A610123BB614FF4DE
:10308C008033FB6100233B620123BB6202237B6321
:10309C004FF48033BB634FF4E013FB6307F1180369
:1030AC00184603F0FFFB0346002B01D000F04EF94D
:1030BC000F237B600223BB600023FB604FF4806313
:1030CC003B6100237B613B1D0221184603F06CFE23
:1030DC000346002B01D000F039F900BF4037BD4644
:1030EC0080BD000080B500AF124B134A1A60114B23
:1030FC00124A5A600F4B00229A600E4B0022DA6083
:10310C000C4B4FF480421A610A4B00225A61094B56
:10311C0000229A61074B0022DA61064B00221A62E8
:10312C00044800F01DFF0346002B01D000F00EF9FF
:10313C0000BF80BD4C01002000540040A08601005F
:10314C0080B586B000AF07F1080300221A605A6000
:10315C009A60DA603B4600221A605A601D4B4FF0B1
:10316C0080421A601B4B48F69F425A60194B002252
:10317C009A60184B6322DA60164B00221A61154BC9
:10318C0000229A61134803F093FF0346002B01D0F1
:10319C0000F0DCF84FF48053BB6007F108031946CC
:1031AC000C4804F01BFA0346002B01D000F0CEF8BB
:1031BC0000233B6000237B603B461946054804F026
:1031CC0011FC0346002B01D000F0C0F800BF1837EB
:1031DC00BD4680BDA001002080B586B000AF07F1D0
:1031EC00080300221A605A609A60DA603B4600229B
:1031FC001A605A601D4B1E4A1A601C4B47225A60BB
:10320C001A4B00229A60194B4FF6FE72DA60174B7C
:10321C0000221A61154B00229A61144803F048FFF2
:10322C000346002B01D000F091F84FF48053BB60A3
:10323C0007F1080319460D4804F0D0F90346002B9A
:10324C0001D000F083F800233B6000237B603B46F9
:10325C001946064804F0C6FB0346002B01D000F0CB
:10326C0075F800BF1837BD4680BD00BFE8010020CF
:10327C000004004080B588B000AF07F110030022B5
:10328C001A605A609A60DA602D4B9B692C4A43F0A5
:10329C00200393612A4B9B6903F02003FB60FB68BE
:1032AC00274B9B69264A43F004039361244B9B698B
:1032BC0003F00403BB60BB68214B9B69204A43F0BD
:1032CC00080393611E4B9B6903F008037B607B68CA
:1032DC00002260211B4800F02AFE002220211A48FF
:1032EC0000F025FE40F20C433B6100237B6101237F
:1032FC00BB6107F110031946124800F07DFC6023F6
:10330C003B6101237B610123BB610223FB6107F15C
:10331C00100319460B4800F06FFC20233B6101237E
:10332C007B610123BB610223FB6107F1100319468A
:10333C00054800F061FC00BF2037BD4680BD00BFD2
:10334C000010024000080140000C014080B400AFA6
:10335C0072B600BFFEE7000080B582B000AF7860A7
:10336C000B467B80084A7B681360084A7B88138075
:10337C00054B1B68054A11880122184600F0D7FD41
:10338C0000BF0837BD4680BD30020020340200204B
:10339C0080B582B000AF0346FB71FB79012B08D1DD
:1033AC000A4B1B680A4A11880022184600F0BFFD20
:1033BC0007E0064B1B68064A11880122184600F0EC
:1033CC00B6FD00BF0837BD4680BD00BF30020020EF
:1033DC003402002080B485B000AF154B9B69144AB1
:1033EC0043F001039361124B9B6903F00103BB6033
:1033FC00BB680F4BDB690E4A43F08053D3610C4B17
:10340C00DB6903F080537B607B680A4B5B68FB6075
:10341C00FB6823F0E063FB60FB6843F00073FB6028
:10342C00044AFB68536000BF1437BD4680BC70472C
:10343C00001002400000014080B58AB000AF7860F7
:10344C0007F1140300221A605A609A60DA607B68F4
:10345C001B68254A934242D1244B9B69234A43F073
:10346C0008039361214B9B6903F008033B613B69A3
:10347C004FF440737B611223BB6103233B6207F162
:10348C00140319461A4800F0B7FB1A4B5B687B62B1
:10349C007B6A43F0E0637B627B6A43F002037B62EE
:1034AC00144A7B6A5360114BDB69104A43F40013D6
:1034BC00D3610E4BDB6903F40013FB60FB68002245
:1034CC0000211F2000F0DFFA1F2000F0F8FA002284
:1034DC000021202000F0D7FA202000F0F0FA00BFE5
:1034EC002837BD4680BD00BF00540040001002408C
:1034FC00000C01400000014080B584B000AF786042
:10350C007B681B68B3F1804F14D1154BDB69144AEF
:10351C0043F00103D361124BDB6903F00103FB6041
:10352C00FB68002200211C2000F0ADFA1C2000F0EA
:10353C00C6FA10E07B681B680A4A93420BD1084B11
:10354C00DB69074A43F00203D361054BDB6903F0E7
:10355C000203BB60BB6800BF1037BD4680BD00BF17
:10356C00001002400004004080B400AFFEE780B4BD
:10357C0000AFFEE780B400AFFEE780B400AFFEE71B
:10358C0080B400AFFEE780B400AF00BFBD4680BC86
:10359C00704780B400AF00BFBD4680BC704780B49C
:1035AC0000AF00BFBD4680BC704780B500AF00F0D7
:1035BC0053F900BF80BD000080B500AF024803F096
:1035CC0005FF00BF80BD00BFA001002080B500AF8B
:1035DC00024801F067F900BF80BD00BF4C0100201C
:1035EC0080B500AF024801F0CEFA00BF80BD00BF2D
:1035FC004C01002080B586B000AF7860144A154BA2
:10360C00D31A7B617B693B61134B1B68002B02D186
:10361C00114B124A1A60104B1A687B6813443A69B2
:10362C009A4207D204F04EFA03460C221A604FF06D
:10363C00FF3309E0084B1B68FB60074B1A687B687B
:10364C001344054A1360FB6818461837BD4680BD05
:10365C000050002000040000380200205802002016
:10366C0080B400AF00BFBD4680BC704780B400AFD3
:10367C000C4B1B88002B10D00A4B1B88013B9AB2B9
:10368C00084B1A80074B1B88002B06D1064B1A8857
:10369C00044B1A80054B01221A7000BFBD4680BC3A
:1036AC00704700BF420200206A0000204002002048
:1036BC0080B582B000AF78607B681A68054B1B68D8
:1036CC001B689A4201D1FFF7D1FF00BF0837BD46F6
:1036DC0080BD00BF3C02002080B582B000AF786096
:1036EC00094A7B681360094B1A88094B1A80094BED
:1036FC0000221A70044B1B68184603F073FD00BFC0
:10370C000837BD4680BD00BF3C0200206A00002087
:10371C00420200204002002080B483B000AF034678
:10372C00FB80FB88094A127893FBF2F39AB2084BA0
:10373C001A80074B1A88074B1A80074B00221A7005
:10374C0000BF0C37BD4680BC704700BF680000202E
:10375C006A000020420200204002002080B400AF2A
:10376C00064B1B78002B04D0044B00221A7001234B
:10377C0000E000231846BD4680BC70474002002084
:10378C000C480D490D4A002302E0D458C4500433B0
:10379C00C4188C42F9D30A4A0A4C002301E0136086
:1037AC000432A242FBD3FFF75BFF04F091F9FFF761
:1037BC00DBFB704700000020D8000020A47E00082E
:1037CC00D800002058020020FEE7000080B500AFB2
:1037DC00084B1B68074A43F010031360032000F0EA
:1037EC0047F90F2000F008F8FFF7F4FD0023184606
:1037FC0080BD00BF0020024080B582B000AF786071
:10380C00124B1A68124B1B7819464FF47A73B3FBA0
:10381C00F1F3B2FBF3F3184600F05FF90346002B0B
:10382C0001D001230EE07B680F2B0AD800227968A7
:10383C004FF0FF3000F027F9064A7B681360002335
:10384C0000E0012318460837BD4680BD6400002007
:10385C00700000206C00002080B400AF054B1B787A
:10386C001A46054B1B681344034A136000BFBD4640
:10387C0080BC7047700000204402002080B400AF70
:10388C00024B1B681846BD4680BC704744020020A2
:10389C0080B584B000AF7860FFF7F0FFB8607B684C
:1038AC00FB60FB68B3F1FF3F05D00A4B1B781A464F
:1038BC00FB681344FB6000BFFFF7E0FF0246BB68E8
:1038CC00D31AFA689A42F7D800BF00BF1037BD462A
:1038DC0080BD00BF7000002080B485B000AF786060
:1038EC007B6803F00703FB600C4BDB68BB60BA68BA
:1038FC004FF6FF031340BB60FB681A02BB6813430F
:10390C0043F0BF6343F40033BB60044ABB68D3602D
:10391C0000BF1437BD4680BC704700BF00ED00E00F
:10392C0080B400AF044BDB681B0A03F00703184696
:10393C00BD4680BC704700BF00ED00E080B483B092
:10394C0000AF0346FB7197F90730002B0BDBFB79BB
:10395C0003F01F02064997F907305B09012000FAB2
:10396C0002F241F8232000BF0C37BD4680BC7047E3
:10397C0000E100E080B483B000AF03463960FB7116
:10398C0097F90730002B0ADB3B68DAB20C4997F940
:10399C0007301201D2B20B4483F800230AE03B68D3
:1039AC00DAB20849FB7903F00F03043B1201D2B2DF
:1039BC000B441A7600BF0C37BD4680BC704700BF65
:1039CC0000E100E000ED00E080B489B000AFF860E9
:1039DC00B9607A60FB6803F00703FB61FB69C3F114
:1039EC000703042B28BF0423BB61FB690433062B9C
:1039FC0002D9FB69033B00E000237B614FF0FF32EF
:103A0C00BB6902FA03F3DA43BB681A407B699A403C
:103A1C004FF0FF317B6901FA03F3D9437B680B400C
:103A2C00134318462437BD4680BC704780B582B01E
:103A3C0000AF78607B68013BB3F1807F01D3012339
:103A4C000FE00A4A7B68013B53600F214FF0FF30B7
:103A5C00FFF790FF054B00229A60044B07221A6077
:103A6C00002318460837BD4680BD00BF10E000E0BB
:103A7C0080B582B000AF78607868FFF72DFF00BF8B
:103A8C000837BD4680BD80B586B000AF0346B9602F
:103A9C007A60FB7300237B61FFF742FF78617A68E1
:103AAC00B9687869FFF790FF024697F90F30114615
:103ABC001846FFF75FFF00BF1837BD4680BD80B5C5
:103ACC0082B000AF0346FB7197F907301846FFF739
:103ADC0035FF00BF0837BD4680BD80B582B000AF52
:103AEC0078607868FFF7A2FF034618460837BD4692
:103AFC0080BD000080B584B000AF78600023FB73FC
:103B0C007B6893F82130022B05D07B6804229A63E2
:103B1C000123FB7351E07B681B681A687B681B6888
:103B2C0022F00E021A607B681B681A687B681B689F
:103B3C0022F001021A607B681B68224A934229D04A
:103B4C007B681B68204A934222D07B681B681F4A03
:103B5C0093421AD07B681B681D4A934212D07B6833
:103B6C001B681C4A93420AD07B681B681A4A934212
:103B7C0002D14FF480130EE04FF080730BE04FF442
:103B8C00803308E04FF4805305E04FF4807302E07B
:103B9C00102300E00123114A53607B68012283F853
:103BAC0021207B68002283F820207B685B6B002B34
:103BBC0003D07B685B6B78689847FB7B18461037A3
:103BCC00BD4680BD080002401C000240300002408F
:103BDC0044000240580002406C00024000000240C9
:103BEC0080B483B000AF78607B6893F821301846BE
:103BFC000C37BD4680BC704780B48BB000AF78608A
:103C0C00396000237B6200233B6269E101227B6AFD
:103C1C0002FA03F3FB613B681B68FA691340BB6152
:103C2C00BA69FB699A4240F058813B685B689A4AD2
:103C3C0093425ED0984A934275D8984A934258D092
:103C4C00964A93426FD8964A934252D0944A9342E2
:103C5C0069D8944A93424CD0924A934263D8924A80
:103C6C00934246D0904A93425DD8122B2AD8122BFD
:103C7C0059D801A252F823F0FF3C0008D93C0008A7
:103C8C00EB3C00082D3D0008333D0008333D000897
:103C9C00333D0008333D0008333D0008333D000838
:103CAC00333D0008333D0008333D0008333D000828
:103CBC00333D0008333D0008333D0008E13C00086B
:103CCC00F53C0008794A934213D02CE03B68DB6842
:103CDC003B6229E03B68DB6804333B6224E03B68D1
:103CEC00DB6808333B621FE03B68DB680C333B62EC
:103CFC001AE03B689B68002B02D104233B6213E063
:103D0C003B689B68012B05D108233B627B68FA69F1
:103D1C001A6109E008233B627B68FA695A6103E087
:103D2C0000233B6200E000BFBB69FF2B01D87B681E
:103D3C0001E07B6804337B61BB69FF2B02D87B6A93
:103D4C009B0002E07B6A083B9B003B617B691A6825
:103D5C000F213B6901FA03F3DB431A40396A3B69D3
:103D6C0001FA03F31A437B691A603B685B6803F042
:103D7C008053002B00F0B1804D4B9B694C4A43F0B3
:103D8C00010393614A4B9B6903F00103BB60BB6861
:103D9C00484A7B6A9B08023352F82330FB607B6AEB
:103DAC0003F003039B000F2202FA03F3DB43FA68D0
:103DBC001340FB607B68404A934213D07B683F4AB8
:103DCC0093420DD07B683E4A934207D07B683D4AB4
:103DDC00934201D1032306E0042304E0022302E012
:103DEC00012300E000237A6A02F003029200934060
:103DFC00FA681343FB602F497B6A9B080233FA680D
:103E0C0041F823203B685B6803F48033002B06D019
:103E1C002D4B1A682C49BB6913430B6006E02A4BE7
:103E2C001A68BB69DB43284913400B603B685B682D
:103E3C0003F40033002B06D0234B5A682249BB698C
:103E4C0013434B6006E0204B5A68BB69DB431E49A9
:103E5C0013404B603B685B6803F48013002B06D067
:103E6C00194B9A681849BB6913438B6006E0164BD3
:103E7C009A68BB69DB43144913408B603B685B68F1
:103E8C0003F40013002B21D00F4BDA680E49BB69E9
:103E9C001343CB6021E000BF000032100000311052
:103EAC000000221000002110000012100000111060
:103EBC00001002400000014000080140000C0140CD
:103ECC000010014000140140000401400B4BDA6863
:103EDC00BB69DB4309491340CB607B6A01337B62CE
:103EEC003B681A687B6A22FA03F3002B7FF48EAED0
:103EFC0000BF00BF2C37BD4680BC7047000401409A
:103F0C0080B485B000AF78600B467B807B689A6884
:103F1C007B881340002B02D00123FB7301E00023AC
:103F2C00FB73FB7B18461437BD4680BC704780B4CE
:103F3C0083B000AF78600B467B8013467B707B7838
:103F4C00002B03D07A887B681A6103E07B881A0403
:103F5C007B681A6100BF0C37BD4680BC70470000FF
:103F6C0080B584B000AF78607B68002B01D1012351
:103F7C002BE17B6893F83D30DBB2002B06D17B68DC
:103F8C00002283F83C207868FFF756FA7B682422DD
:103F9C0083F83D207B681B681A687B681B6822F0DD
:103FAC0001021A607B681B681A687B681B6842F404
:103FBC0000421A607B681B681A687B681B6822F4D5
:103FCC0000421A6003F042F8F8607B685B68814A33
:103FDC00934207D8FB68804A934294BF0123002385
:103FEC00DBB206E0FB687D4A934294BF01230023B9
:103FFC00DBB2002B01D00123E7E0FB68784AA2FB7F
:10400C0003239B0CBB607B681B685B6823F03F0140
:10401C007B681B68BA680A435A607B681B681B6A1A
:10402C0023F03F017B685B686A4A934202D8BB6805
:10403C00013309E0BB684FF4967202FB03F3694A43
:10404C00A2FB03239B0901337A6812680B431362AA
:10405C007B681B68DB6923F44F4222F0FF027B680C
:10406C005B685C498B4219D8FB68591E7B685B689E
:10407C005B00B1FBF3F3591C40F6FC730B40002BB7
:10408C000AD0FB68591E7B685B685B00B1FBF3F3DD
:10409C000133C3F30B0351E004234FE07B689B68AF
:1040AC00002B11D1FB68581E7B6859680B465B00CE
:1040BC000B44B0FBF3F30133C3F30B03002B0CBF26
:1040CC0001230023DBB212E0FB68581E7B685968A1
:1040DC000B469B000B4499000B44B0FBF3F30133EC
:1040EC00C3F30B03002B0CBF01230023DBB2002B0B
:1040FC0001D0012322E07B689B68002B0ED1FB686A
:10410C00581E7B6859680B465B000B44B0FBF3F3FD
:10411C000133C3F30B0343F400430FE0FB68581E59
:10412C007B6859680B469B000B4499000B44B0FB11
:10413C00F3F30133C3F30B0343F440437968096889
:10414C001343CB617B681B681B6823F0C0017B6841
:10415C00DA697B681B6A1A437B681B680A431A601E
:10416C007B681B689B6823F4034323F0FF037A6886
:10417C0011697A68D26811437A6812680B439360AC
:10418C007B681B68DB6823F0FF017B685A697B68DE
:10419C009B691A437B681B680A43DA607B681B685F
:1041AC001A687B681B6842F001021A607B68002267
:1041BC001A647B68202283F83D207B6800221A63F6
:1041CC007B68002283F83E20002318461037BD463A
:1041DC0080BD00BFA08601007F841E00FF083D004B
:1041EC0083DE1B43D34D621080B588B002AFF860FC
:1041FC007A601A460B467B8113463B81FFF73EFBE8
:10420C007861FB6893F83D30DBB2202B40F0E08006
:10421C007B690093192301227049F86802F01AF99E
:10422C000346002B01D00223D3E0FB6893F83C300B
:10423C00012B01D10223CCE0FB68012283F83C2046
:10424C00FB681B681B6803F00103012B07D0FB689C
:10425C001B681A68FB681B6842F001021A60FB6855
:10426C001B681A68FB681B6822F400621A60FB6802
:10427C00212283F83D20FB68102283F83E20FB6846
:10428C0000221A64FB687A685A62FB683A895A857C
:10429C00FB685B8D9AB2FB681A85FB68504ADA6240
:1042AC0079897B693A6AF86801F0DCFE0346002BD9
:1042BC0001D001238DE000233B61FB681B685B6927
:1042CC003B61FB681B689B693B613B6966E07A69F3
:1042DC00396AF86802F094F90346002B0DD0FB689C
:1042EC001B6C042B07D1FB681B681A68FB681B68E6
:1042FC0042F400721A6001236BE0FB685B6A1A7867
:10430C00FB681B681A61FB685B6A5A1CFB685A6283
:10431C00FB685B8D9BB2013B9AB2FB685A85FB68CC
:10432C001B8D013B9AB2FB681A85FB681B685B69A5
:10433C0003F00403042B1BD1FB681B8D002B17D03F
:10434C00FB685B6A1A78FB681B681A61FB685B6A1E
:10435C005A1CFB685A62FB685B8D9BB2013B9AB29C
:10436C00FB685A85FB681B8D013B9AB2FB681A856A
:10437C007A69396AF86802F084F90346002B0DD08B
:10438C00FB681B6C042B07D1FB681B681A68FB6865
:10439C001B6842F400721A6001231AE0FB681B8D43
:1043AC00002B94D1FB681B681A68FB681B6842F4ED
:1043BC0000721A60FB68202283F83D20FB68002203
:1043CC0083F83E20FB68002283F83C20002300E0A9
:1043DC00022318461837BD4680BD00BF02001000EE
:1043EC000000FFFF80B58CB002AFF8607A601A460F
:1043FC000B467B8113463B8100233B62FFF73EFA61
:10440C007862FB6893F83D30DBB2202B40F03F82A2
:10441C007B6A0093192301227F49F86802F01AF88D
:10442C000346002B01D0022332E2FB6893F83C30A8
:10443C00012B01D102232BE2FB68012283F83C20E3
:10444C00FB681B681B6803F00103012B07D0FB689A
:10445C001B681A68FB681B6842F001021A60FB6853
:10446C001B681A68FB681B6822F400621A60FB6800
:10447C00222283F83D20FB68102283F83E20FB6843
:10448C0000221A64FB687A685A62FB683A895A857A
:10449C00FB685B8D9AB2FB681A85FB685F4ADA622F
:1044AC0079897B6A3A6BF86801F05EFE0346002B53
:1044BC0001D00123ECE1FB681B8D002B13D10023F1
:1044CC00FB61FB681B685B69FB61FB681B689B6994
:1044DC00FB61FB69FB681B681A68FB681B6842F48C
:1044EC0000721A60C0E1FB681B8D012B1ED1FB68AA
:1044FC001B681A68FB681B6822F480621A6072B62B
:10450C0000BF0023BB61FB681B685B69BB61FB6878
:10451C001B689B69BB61BB69FB681B681A68FB68FD
:10452C001B6842F400721A6062B635E0FB681B8DA2
:10453C00022B1ED1FB681B681A68FB681B6842F4CF
:10454C0000621A6072B600BF00237B61FB681B68B7
:10455C005B697B61FB681B689B697B617B69FB68A2
:10456C001B681A68FB681B6822F480621A6062B6CA
:10457C0012E0FB681B681A68FB681B6842F48062D7
:10458C001A6000233B61FB681B685B693B61FB683D
:10459C001B689B693B613B6966E1FB681B8D032BC8
:1045AC0000F21F81FB681B8D012B23D17A6A396BBA
:1045BC00F86802F0D9F80346002B01D0012367E11B
:1045CC00FB681B681A69FB685B6AD2B21A70FB68DD
:1045DC005B6A5A1CFB685A62FB681B8D013B9AB2E2
:1045EC00FB681A85FB685B8D9BB2013B9AB2FB683A
:1045FC005A8539E1FB681B8D022B52D17B6A0093E3
:10460C003B6B00220649F86801F024FF0346002B9F
:10461C0008D001233CE100BF020010000000FFFFA6
:10462C000400010072B600BFFB681B681A68FB68C7
:10463C001B6842F400721A60FB681B681A69FB68FD
:10464C005B6AD2B21A70FB685B6A5A1CFB685A62CE
:10465C00FB681B8D013B9AB2FB681A85FB685B8D6E
:10466C009BB2013B9AB2FB685A8562B600BFFB68ED
:10467C001B681A69FB685B6AD2B21A70FB685B6ACA
:10468C005A1CFB685A62FB681B8D013B9AB2FB6893
:10469C001A85FB685B8D9BB2013B9AB2FB685A850D
:1046AC00E2E07B6A00933B6B00227B49F86801F0E7
:1046BC00D1FE0346002B01D00123E9E0FB681B6807
:1046CC001A68FB681B6822F480621A6072B600BF1D
:1046DC00FB681B681A69FB685B6AD2B21A70FB68CC
:1046EC005B6A5A1CFB685A62FB681B8D013B9AB2D1
:1046FC00FB681A85FB685B8D9BB2013B9AB2FB6829
:10470C005A85664B1B68DB08654AA2FB03231A0A11
:10471C0013469B001344DA00D31A3B623B6A013BFD
:10472C003B623B6A002B18D1FB6800221A63FB68C2
:10473C00202283F83D20FB68002283F83E20FB6892
:10474C001B6C43F02002FB681A6462B600BFFB6866
:10475C00002283F83C2001239AE0FB681B685B690C
:10476C0003F00403042BD9D1FB681B681A68FB689F
:10477C001B6842F400721A60FB681B681A69FB68BC
:10478C005B6AD2B21A70FB685B6A5A1CFB685A628D
:10479C00FB681B8D013B9AB2FB681A85FB685B8D2D
:1047AC009BB2013B9AB2FB685A8562B600BFFB68AC
:1047BC001B681A69FB685B6AD2B21A70FB685B6A89
:1047CC005A1CFB685A62FB681B8D013B9AB2FB6852
:1047DC001A85FB685B8D9BB2013B9AB2FB685A85CC
:1047EC0042E07A6A396BF86801F0BEFF0346002B91
:1047FC0001D001234CE0FB681B681A69FB685B6AFB
:10480C00D2B21A70FB685B6A5A1CFB685A62FB686E
:10481C001B8D013B9AB2FB681A85FB685B8D9BB2C2
:10482C00013B9AB2FB685A85FB681B685B6903F015
:10483C000403042B18D1FB681B681A69FB685B6ABC
:10484C00D2B21A70FB685B6A5A1CFB685A62FB682E
:10485C001B8D013B9AB2FB681A85FB685B8D9BB282
:10486C00013B9AB2FB685A85FB681B8D002B7FF4C9
:10487C0094AEFB68202283F83D20FB68002283F86D
:10488C003E20FB68002283F83C20002300E002233A
:10489C0018462837BD4680BD040001006400002086
:1048AC0089B5F81480B588B000AF78600023BB617F
:1048BC007B681B685B687B617B68DB6A3B617B6840
:1048CC0093F83E30FB737B6893F83D30BB73FB7BF6
:1048DC00102B03D0FB7B402B40F0C1807B681B6806
:1048EC009B69BB617B681B685B69FB61FB6903F0BF
:1048FC000103002B0DD13B69B3F52A0F03D03B69A3
:10490C00B3F12A4F01D1012300E00023012B00F069
:10491C003281FB6903F00103002B0CD07B695B0A2D
:10492C0003F00103002B06D0786801F0A1FF786832
:10493C0000F077FD92E0FB69DB0803F00103002B2C
:10494C0009D07B695B0A03F00103002B03D0786864
:10495C0000F0ECFD82E0FB695B0803F00103002B27
:10496C0009D07B695B0A03F00103002B03D0786844
:10497C0000F005FE72E0BB699B0803F00103002BFD
:10498C003BD07B681B685B6803F40063B3F5006F76
:10499C0000F0F380FB69DB0903F00103002B0FD05F
:1049AC007B699B0A03F00103002B09D0FB699B0870
:1049BC0003F00103002B03D1786800F0F1F94DE00E
:1049CC00FB699B0803F00103002B00F0D6807B6988
:1049DC005B0A03F00103002B00F0CF80BB7B212B83
:1049EC0003D1786800F078FAC7E0FB7B402B40F0ED
:1049FC00C480786800F0E6FABFE07B681B685B68EF
:104A0C0003F40063B3F5006F00F0B780FB699B09FA
:104A1C0003F00103002B0FD07B699B0A03F0010309
:104A2C00002B09D0FB699B0803F00103002B03D179
:104A3C00786800F05BFB11E0FB699B0803F0010355
:104A4C00002B00F09A807B695B0A03F00103002BBA
:104A5C0000F09380786800F0FAFB8EE08DE07B68C4
:104A6C001B6C002B04D07B681B685B69FB6107E047
:104A7C007B681B689B69BB617B681B685B69FB611E
:104A8C00FB695B0803F00103002B12D07B695B0A06
:104A9C0003F00103002B0CD07B681B6C002B03D0A4
:104AAC007B681B689B69BB61B969786800F0BEFFC5
:104ABC0066E0FB691B0903F00103002B09D07B693D
:104ACC005B0A03F00103002B03D0786800F0F8FFB9
:104ADC0056E0BB7B212B02D0BB7B292B25D1FB695C
:104AEC00DB0903F00103002B0FD07B699B0A03F059
:104AFC000103002B09D0FB699B0803F00103002B79
:104B0C0003D1786800F0D6FE39E0FB699B0803F00E
:104B1C000103002B33D07B695B0A03F00103002BEC
:104B2C002DD0786800F003FF29E0FB699B0903F0A6
:104B3C000103002B0FD07B699B0A03F00103002BB0
:104B4C0009D0FB699B0803F00103002B03D17868A3
:104B5C0000F00DFF14E0FB699B0803F00103002B30
:104B6C000ED07B695B0A03F00103002B08D0786838
:104B7C0000F03BFF04E000BF02E000BF00E000BF1C
:104B8C002037BD4680BD80B58AB000AF78607B68A9
:104B9C001B685B693B627B681B685B68FB6100237D
:104BAC007B627B6893F83E30FB763B6A1B0A03F012
:104BBC000103002B16D0FB691B0A03F00103002B29
:104BCC0010D07B6A43F001037B627B681B686FF437
:104BDC0080725A617B681B681A687B681B6842F498
:104BEC0000421A603B6A5B0A03F00103002B0ED0F3
:104BFC00FB691B0A03F00103002B08D07B6A43F00E
:104C0C0002037B627B681B686FF400725A613B6A1B
:104C1C009B0A03F00103002B3FD0FB691B0A03F036
:104C2C000103002B39D0FB7EBB767B685B8D9BB27E
:104C3C007B617B6893F83D30FB747B681B6BFB607E
:104C4C00BB7E202B12D17B69002B0FD1FB7C212B3F
:104C5C0008D0FB7C292B05D0FB7C282B06D1FB68CC
:104C6C00212B03D1786801F05BF816E07B681B6898
:104C7C006FF480625A617B6A43F004037B62FB7EB3
:104C8C00102B02D0FB7E402B07D17B681B681A6867
:104C9C007B681B6842F400721A603B6ADB0A03F003
:104CAC000103002B0ED0FB691B0A03F00103002B40
:104CBC0008D07B6A43F008037B627B681B686FF447
:104CCC0000625A617B6A002B08D07B681A6C7B6A85
:104CDC001A437B681A64786801F092F800BF283791
:104CEC00BD4680BD80B483B000AF786000BF0C3788
:104CFC00BD4680BC704780B483B000AF786000BF05
:104D0C000C37BD4680BC704780B483B000AF786070
:104D1C0000BF0C37BD4680BC704780B483B000AF79
:104D2C00786000BF0C37BD4680BC704780B483B040
:104D3C0000AF78600B46FB7013463B8000BF0C370E
:104D4C00BD4680BC704780B483B000AF786000BFB4
:104D5C000C37BD4680BC704780B483B000AF786020
:104D6C0000BF0C37BD4680BC704780B483B000AF29
:104D7C00786000BF0C37BD4680BC704780B483B0F0
:104D8C0000AF786000BF0C37BD4680BC704780B464
:104D9C0083B000AF786000BF0C37BD4680BC704755
:104DAC0080B584B000AF78607B6893F83D30FB73BE
:104DBC007B6893F83E30BB737B68DB6ABB607B68B7
:104DCC001B8D002B50D1FB7B212B4DD1BB68082BAD
:104DDC001DD0BB68202B1AD0BB6813F5803F16D0B2
:104DEC007B681B685A687B681B6822F4E0625A6017
:104DFC007B6811221A637B68002283F83E207B6853
:104E0C00202283F83D207868FFF76CFF60E07B6818
:104E1C001B685A687B681B6822F4E0625A607B68E6
:104E2C001B681A687B681B6842F400721A607B6806
:104E3C0000221A637B68202283F83D207B6893F85C
:104E4C003E30DBB2402B07D17B68002283F83E203A
:104E5C007868FFF781FF3BE07B68002283F83E20F7
:104E6C007868FFF73FFF33E0FB7B212B05D0BB7B42
:104E7C00402B2DD1FB7B222B2AD17B685B8D9BB2E7
:104E8C00002B08D17B681B685A687B681B6822F46E
:104E9C0080625A601CE07B6893F83E30DBB2402B9A
:104EAC0003D1786800F08EF812E07B685B6A1A78A0
:104EBC007B681B681A617B685B6A5A1C7B685A6248
:104ECC007B685B8D9BB2013B9AB27B685A85FFE78E
:104EDC0000BF1037BD4680BD80B584B000AF786090
:104EEC007B68DB6AFB607B6893F83D30DBB2212B7F
:104EFC0064D17B685B8D9BB2002B12D07B685B6AA4
:104F0C001A787B681B681A617B685B6A5A1C7B6821
:104F1C005A627B685B8D9BB2013B9AB27B685A8567
:104F2C004CE0FB68082B1DD0FB68202B1AD0FB68CB
:104F3C0013F5803F16D07B681B685A687B681B682A
:104F4C0022F4E0625A607B6811221A637B680022AB
:104F5C0083F83E207B68202283F83D207868FFF799
:104F6C00C1FE2BE07B681B685A687B681B6822F4C7
:104F7C00E0625A607B681B681A687B681B6842F4A5
:104F8C0000721A607B6800221A637B68202283F807
:104F9C003D207B6893F83E30DBB2402B07D17B6819
:104FAC00002283F83E207868FFF7D6FE06E07B6887
:104FBC00002283F83E207868FFF794FE00BF10377C
:104FCC00BD4680BD80B584B000AF78607B6893F837
:104FDC003D30FB737B681B6D002B1DD17B68DB6C3C
:104FEC00012B0BD17B689B6CDAB27B681B681A6156
:104FFC007B681B6D9A1C7B681A6573E07B689B6CE5
:10500C009BB21B12DAB27B681B681A617B681B6D42
:10501C005A1C7B681A6565E07B681B6D012B0BD1F4
:10502C007B689B6CDAB27B681B681A617B681B6DB2
:10503C005A1C7B681A6555E07B681B6D022B51D19D
:10504C00FB7B222B0DD17B681B681A687B681B6865
:10505C0042F480721A607B681B6D5A1C7B681A655F
:10506C0040E07B685B8D9BB2002B15D0FB7B212B2A
:10507C0012D17B685B6A1A787B681B681A617B6843
:10508C005B6A5A1C7B685A627B685B8D9BB2013BE6
:10509C009AB27B685A8525E07B685B8D9BB2002BAE
:1050AC0020D1FB7B212B1DD17B681B685A687B6848
:1050BC001B6822F4E0625A607B681B681A687B6884
:1050CC001B6842F400721A607B6800221A637B68CA
:1050DC00202283F83D207B68002283F83E207868EC
:1050EC00FFF73AFE00BF1037BD4680BD80B584B0D7
:1050FC0000AF78607B6893F83D30DBB2222B40F038
:10510C00A2807B685B8D9BB2FB60FB68032B21D973
:10511C007B681B681A697B685B6AD2B21A707B6801
:10512C005B6A5A1C7B685A627B685B8D9BB2013B45
:10513C009AB27B685A857B685B8D9BB2032B40F0DF
:10514C0082807B681B685A687B681B6822F48062CB
:10515C005A6078E07B68DB6A022B74D0FB68012B09
:10516C0002D0FB68002B6ED1786801F0CBFA0346B5
:10517C00002B42D17B681B681A687B681B6822F481
:10518C0080621A607B681B685A687B681B6822F413
:10519C00E0625A607B681B681A697B685B6AD2B2F2
:1051AC001A707B685B6A5A1C7B685A627B685B8DE1
:1051BC009BB2013B9AB27B685A857B68202283F8AC
:1051CC003D207B6893F83E30DBB2402B0AD17B68E4
:1051DC00002283F83E207B6800221A637868FFF770
:1051EC00C4FD30E07B68002283F83E207B681222ED
:1051FC001A637868FFF77FFD25E07B681B685A68A7
:10520C007B681B6822F4E0625A607B681B681A6931
:10521C007B685B6AD2B21A707B685B6A5A1C7B68CB
:10522C005A627B685B8D9BB2013B9AB27B685A8554
:10523C007B68202283F83D207B68002283F83E2087
:10524C007868FFF79BFD00BF1037BD4680BD80B569
:10525C0084B000AF78607B68DB6AFB607B685B8D39
:10526C009BB2042B1BD17B681B685A687B681B683C
:10527C0022F480625A607B681B681A697B685B6ADF
:10528C00D2B21A707B685B6A5A1C7B685A627B6864
:10529C005B8D9BB2013B9AB27B685A85BDE07B6803
:1052AC005B8D9BB2032B29D17B681B685A687B688A
:1052BC001B6822F480625A60FB68042B0AD0FB68DE
:1052CC00022B07D07B681B681A687B681B6822F46A
:1052DC0080621A607B681B681A697B685B6AD2B251
:1052EC001A707B685B6A5A1C7B685A627B685B8DA0
:1052FC009BB2013B9AB27B685A858EE07B685B8DD2
:10530C009BB2022B76D1FB68012B02D0FB68102BD1
:10531C0008D17B681B681A687B681B6822F4806262
:10532C001A6019E0FB68042B02D0FB68022B08D131
:10533C007B681B681A687B681B6842F480621A6081
:10534C000AE0FB68102B07D07B681B681A687B6827
:10535C001B6842F400721A607B681B681A697B68D0
:10536C005B6AD2B21A707B685B6A5A1C7B685A62A1
:10537C007B685B8D9BB2013B9AB27B685A857B68DC
:10538C001B681A697B685B6AD2B21A707B685B6AAD
:10539C005A1C7B685A627B685B8D9BB2013B9AB24C
:1053AC007B685A857B681B685A687B681B6822F48B
:1053BC0040725A607B68202283F83D207B6893F80A
:1053CC003E30DBB2402B0AD17B68002283F83E20B2
:1053DC007B6800221A637868FFF7C7FC1DE07B68C6
:1053EC00002283F83E207B6812221A637868FFF74C
:1053FC0082FC12E07B681B681A697B685B6AD2B21C
:10540C001A707B685B6A5A1C7B685A627B685B8D7E
:10541C009BB2013B9AB27B685A8500BF1037BD46E0
:10542C0080BD80B483B000AF78607B6893F83E3069
:10543C00DBB2402B17D17B681B6D002B09D17B682D
:10544C005B6CDBB21A467B681B6802F0FE021A61C9
:10545C0067E07B685B6CDBB243F00103DAB27B681C
:10546C001B681A615DE07B681B69B3F5804F33D113
:10547C007B6893F83D30DBB2212B09D17B685B6CE8
:10548C00DBB21A467B681B6802F0FE021A6108E068
:10549C007B685B6CDBB243F00103DAB27B681B68A0
:1054AC001A617B685B6B002B04D07B685B6B9B6A1F
:1054BC00002B08D17B689B6B002B32D07B689B6BDD
:1054CC009B6A002B2DD07B681B685A687B681B6815
:1054DC0042F400625A6024E07B681B6D002B0ED1F5
:1054EC007B685B6C9BB2DB11DBB203F00603DBB2B7
:1054FC0063F00F03DAB27B681B681A6111E07B68FA
:10550C001B6D012B0DD17B685B6C9BB2DB11DBB28D
:10551C0003F00603DBB263F00E03DAB27B681B68A0
:10552C001A6100BF0C37BD4680BC704780B483B095
:10553C0000AF78607B685B6CDAB27B681B681A61C1
:10554C007B685B6B002B04D07B685B6B9B6A002BCE
:10555C0008D17B689B6B002B0CD07B689B6B9B6A88
:10556C00002B07D07B681B685A687B681B6842F469
:10557C0000625A6000BF0C37BD4680BC704780B4D7
:10558C0091B000AF78607B6893F83E3087F83F307D
:10559C007B68DB6ABB637B681B6B7B637B6893F804
:1055AC003D30DBB2222B40F074817B681B6D002BED
:1055BC000FD197F83F30402B0BD100233B637B6816
:1055CC001B685B693B637B681B689B693B633B6B3C
:1055DC006BE17B681B6D002B1DD17B681B69B3F5E0
:1055EC00404F18D10023FB627B681B685B69FB6230
:1055FC007B681B689B69FB62FB6A7B681B681A688B
:10560C007B681B6842F480721A607B681B6D5A1CA5
:10561C007B681A6549E17B685B8D9BB2002B13D1CB
:10562C000023BB627B681B685B69BB627B681B6881
:10563C009B69BB62BB6A7B681B681A687B681B68CA
:10564C0042F400721A6020E17B685B8D9BB2012BE7
:10565C0040F08A80BB6B13F5803F37D17B681B68A9
:10566C001A687B681B6822F480621A607B681B686E
:10567C005B6803F40063B3F5006F13D17B681B68A0
:10568C001A687B681B6822F480621A6000237B62B4
:10569C007B681B685B697B627B681B689B697B62B0
:1056AC007B6AF2E000233B627B681B685B693B62B0
:1056BC007B681B689B693B623B6A7B681B681A684A
:1056CC007B681B6842F400721A60DEE0BB6B082B2F
:1056DC002ED0BB6B202B2BD07B6B122B02D1BB6B38
:1056EC00012B25D1BB6B042B0ED0BB6B022B0BD02B
:1056FC00BB6B102B08D07B681B681A687B681B6817
:10570C0022F480621A6007E07B681B681A687B6869
:10571C001B6842F480621A600023FB617B681B6883
:10572C005B69FB617B681B689B69FB61FB69ACE097
:10573C007B681B681A687B681B6822F480621A609D
:10574C000023BB617B681B685B69BB617B681B6862
:10575C009B69BB61BB697B681B681A687B681B68AB
:10576C0042F400721A6090E07B685B8D9BB2022B56
:10577C0058D1BB6B042B21D0BB6B022B1ED0BB6B47
:10578C00102B1BD07B681B681A687B681B6842F463
:10579C0000621A6000237B617B681B685B697B611C
:1057AC007B681B689B697B617B697B681B681A68DB
:1057BC007B681B6822F480621A6012E07B681B68AD
:1057CC001A687B681B6842F480621A6000233B6194
:1057DC007B681B685B693B617B681B689B693B61F1
:1057EC003B697B681B685B6803F40063B3F5006F6F
:1057FC004BD1BB6B13F5803F0BD0BB6B012B08D08F
:10580C00BB6B082B05D0BB6B102B02D0BB6B202BBA
:10581C003BD17B681B685A687B681B6842F48052DA
:10582C005A6032E07B681B681A687B681B6842F41C
:10583C0080621A607B681B685B6803F40063B3F5D5
:10584C00006F17D1BB6B13F5803F0BD0BB6B012BDB
:10585C0008D0BB6B082B05D0BB6B102B02D0BB6BDD
:10586C00202B07D17B681B685A687B681B6842F445
:10587C0080525A600023FB607B681B685B69FB608D
:10588C007B681B689B69FB60FB687B6800221A6560
:10589C000BE00023BB607B681B685B69BB607B68AB
:1058AC001B689B69BB60BB68FFE700BF4437BD4604
:1058BC0080BC704780B584B000AF78607B6893F88B
:1058CC003D30FB737B685B8D9BB2002B2BD07B68D0
:1058DC005B6A1A787B681B681A617B685B6A5A1C66
:1058EC007B685A627B685B8D9BB2013B9AB27B688A
:1058FC005A857B685B8D9BB2002B14D1FB7B292BCB
:10590C0011D17B681B685A687B681B6822F4806223
:10591C005A607B6821221A637B68282283F83D2019
:10592C007868FFF7F1F900BF1037BD4680BD80B431
:10593C0083B000AF78607B685B8D9BB2002B11D07D
:10594C007B685B6A1A787B681B681A617B685B6A88
:10595C005A1C7B685A627B685B8D9BB2013B9AB286
:10596C007B685A8500BF0C37BD4680BC704780B53C
:10597C0084B000AF78607B6893F83D30FB737B6834
:10598C005B8D9BB2002B2CD07B681B681A697B68E3
:10599C005B6AD2B21A707B685B6A5A1C7B685A626B
:1059AC007B685B8D9BB2013B9AB27B685A857B68A6
:1059BC005B8D9BB2002B14D1FB7B2A2B11D17B6806
:1059CC001B685A687B681B6822F480625A607B688B
:1059DC0022221A637B68282283F83D207868FFF71F
:1059EC009CF900BF1037BD4680BD80B483B000AFBA
:1059FC0078607B685B8D9BB2002B12D07B681B6838
:105A0C001A697B685B6AD2B21A707B685B6A5A1C33
:105A1C007B685A627B685B8D9BB2013B9AB27B6858
:105A2C005A8500BF0C37BD4680BC704780B584B02A
:105A3C0000AF786039600023FB737B6893F83D30CE
:105A4C00DBB203F02803282B27D17B681B685A682C
:105A5C007B681B6822F480625A603B689B0803F0E9
:105A6C000103002B01D10123FB733B68DB0903F01D
:105A7C000103002B03D17B68DB68BB8102E07B68F0
:105A8C009B69BB817B68002283F83C20BA89FB7B35
:105A9C0019467868FFF74AF90EE00023BB607B6873
:105AAC001B685B69BB607B681B689B69BB60BB68E0
:105ABC007B68002283F83C2000BF1037BD4680BDB8
:105ACC0080B584B000AF78607B6893F83D30FB7391
